:020000040800F2
:10000000900800200505000871050008710500082A
:100010007105000871050008710500080000000066
:100020000000000000000000000000007105000852
:100030007105000800000000710500087105000846
:1000400071050008710500087105000871050008B8
:1000500071050008710500087105000871050008A8
:100060007105000871050008710500087105000898
:100070007105000871050008710500087105000888
:100080007105000871050008710500087105000878
:100090007105000871050008710500087105000868
:1000A0007105000871050008710500087105000858
:1000B0007105000871050008710500087105000848
:1000C0007105000871050008710500087105000838
:1000D00071050008B90D00087105000871050008D8
:1000E0007105000871050008710500087105000818
:1000F0007105000871050008710500087105000808
:1001000071050008710500087105000871050008F7
:1001100071050008710500087105000871050008E7
:1001200071050008710500087105000871050008D7
:1001300071050008710500087105000871050008C7
:1001400071050008710500087105000871050008B7
:1001500071050008710500087105000871050008A7
:100160007105000871050008710500087105000897
:100170007105000871050008710500087105000887
:10018000710500087105000880B58AB000AF78607D
:1001900039604FF000037B624FF000033B624FF089
:1001A0000003FB614FF00003BB617B681B8A9BB2BD
:1001B0007B627B6A23F440537B623B68DB887A6A0C
:1001C00013437B627B6A9AB27B681A827B689B8945
:1001D0009BB27B627B6A23F4B05323F00C037B62F7
:1001E0003B689A883B681B8913439AB23B685B89DA
:1001F00013439BB27A6A13437B627B6A9AB27B6831
:100200009A817B689B8A9BB27B627B6A23F44073F2
:100210007B623B689B897A6A13437B627B6A9AB2F2
:100220007B689A8207F10803184600F029FE7A6875
:100230004FF48053C4F201039A4206D07A684FF417
:10024000A053C4F201039A4202D17B693B6201E0F0
:100250003B693B627B689B899BB29BB21BB2002BC4
:100260000FDA3A6A13464FEA83039B184FEA830278
:100270009A183B681B684FEA4303B2FBF3F3FB6138
:100280000EE03A6A13464FEA83039B184FEA830253
:100290009A183B681B684FEA8303B2FBF3F3FB61D8
:1002A000FA6948F21F53C5F2EB13A3FB02134FEA9E
:1002B00053134FEA03137B627B6A4FEA13134FF029
:1002C000640202FB03F3FA69D31ABB617B689B8962
:1002D0009BB29BB21BB2002B12DABB694FEAC3037D
:1002E00003F1320248F21F53C5F2EB13A3FB0213D2
:1002F0004FEA531303F007037A6A13437B6211E05A
:10030000BB694FEA031303F1320248F21F53C5F2EF
:10031000EB13A3FB02134FEA531303F00F037A6AA4
:1003200013437B627B6A9AB27B681A8107F12807C4
:10033000BD4680BD80B483B000AF78600B46FB70D3
:10034000FB78002B08D07B689B899BB243F4005359
:100350009AB27B689A8107E07B689B899BB223F401
:1003600000539AB27B689A8107F10C07BD4680BCA6
:10037000704700BF80B483B000AF78600B467B80CD
:100380007B884FEAC3534FEAD3539AB27B689A8073
:1003900007F10C07BD4680BC704700BF80B487B032
:1003A00000AF786013460A467A807B704FF00003F6
:1003B0003B614FF00003FB604FF00003BB604FF068
:1003C00000037B617B687B617B88DBB24FEA531360
:1003D000DBB23B617B8803F01F03FB60FB684FF0DF
:1003E000010202FA03F3BB603B69012B04D17B6974
:1003F00003F10C037B610BE03B69022B04D17B69A9
:1004000003F110037B6103E07B6903F114037B615B
:100410007B78002B06D07B697A691168BA680A4339
:100420001A6007E07B697A691168BA686FEA0202AC
:100430000A401A6007F11C07BD4680BC704700BF28
:1004400080B487B000AF78600B467B804FF000032C
:10045000FB604FF000037B614FF00003BB604FF087
:100460000003FB747B88DBB24FEA5313DBB2BB6043
:100470007B8803F01F037B617B694FF0010202FA66
:1004800003F37B61BB68012B06D17B689B899BB220
:100490007A6913407B610FE0BB68022B06D17B6851
:1004A0001B8A9BB27A6913407B6105E07B689B8A5B
:1004B0009BB27A6913407B617B884FEA13239BB21E
:1004C000FB60FB684FF0010202FA03F3FB607B68FC
:1004D0001B889BB2FA681340FB607B69002B06D037
:1004E000FB68002B03D04FF00103FB7402E04FF0D8
:1004F0000003FB74FB7C184607F11C07BD4680BC5B
:10050000704700BF80B582B000AF41F64413C0F61B
:1005100000037B6040F20003C2F200033B600BE08B
:100520007B681A683B681A603B6803F104033B6010
:100530007B6803F104037B603A6840F27403C2F203
:1005400000039A42ECD3084808494FF00002884261
:10055000B8BF40F8042BFFF6FAAF00F0F5FA07F148
:100560000807BD4680BD00007400002090000020F8
:1005700080B400AFFEE700BF80B483B000AF786006
:1005800000BF7B68002B0CBF00220122D2B203F116
:10059000FF337B60002AF4D107F10C07BD4680BC15
:1005A000704700BF80B483B000AF4FF000037B60A2
:1005B0000CE040F27803C2F200037A689B184FF017
:1005C00000021A707B6803F101037B607B68132BC8
:1005D000EFDD07F10C07BD4680BC704780B584B0E5
:1005E00000AF4FF008004FF0010100F02FFD4FF475
:1005F0005043BB604FF001033B734FF00003BB73EC
:100600004FF003037B734FF00003FB7307F1080304
:100610004FF44060C4F20200194600F06BFD4FF049
:1006200008004FF0010100F011FD4FF400533B6052
:100630004FF001033B714FF00003BB714FF0030318
:100640007B714FF00003FB713B464FF44060C4F2F6
:100650000200194600F04EFD07F11007BD4680BDAF
:1006600080B582B000AF4FF001004FF0010100F003
:10067000EDFC4FF000033B714FF00003FB714FF0B6
:1006800001033B603B464FF00000C4F202001946F4
:1006900000F030FD07F10807BD4680BD80B582B08F
:1006A00000AF7860786840F20001C2F2000100F00B
:1006B00059FF0346002B02D14FF0010376E0786822
:1006C00040F20801C2F2000100F04CFF0346002B8B
:1006D00002D14FF0020369E0786840F21401C2F2DF
:1006E000000100F03FFF0346002B02D14FF003034F
:1006F0005CE0786840F21C01C2F2000100F032FFB9
:100700000346002B02D14FF004034FE0786840F21B
:100710002801C2F2000100F025FF0346002B02D1A0
:100720004FF0050342E0786840F23001C2F2000168
:1007300000F018FF0346002B02D14FF0060335E00E
:10074000786840F23C01C2F2000100F00BFF034662
:10075000002B02D14FF0070328E0786840F24801EF
:10076000C2F2000100F0FEFE0346002B02D14FF062
:1007700008031BE0786840F25401C2F2000100F067
:10078000F1FE0346002B02D14FF009030EE078681A
:1007900040F25C01C2F2000100F0E4FE0346002BCF
:1007A00002D14FF00A0301E04FF00003184607F1B1
:1007B0000807BD4680BD00BF80B582B000AF78603D
:1007C0007868FFF76BFF034603F1FF33092B00F254
:1007D000058101A252F823F001080008270800084B
:1007E0004D0800087308000899080008BF080008B1
:1007F000E50800080B09000831090008870900080E
:100800004FF44060C4F202004FF4804100F032FD2A
:100810004FF48050C4F2010041F2A071C0F6000113
:1008200000F06EF9E5E04FF44060C4F202004FF4CE
:10083000805100F01FFD4FF48050C4F2010041F2DE
:10084000BC71C0F6000100F05BF9D2E04FF44060EB
:10085000C4F202004FF4004100F00CFD4FF4805050
:10086000C4F2010041F2D871C0F6000100F048F96D
:10087000BFE04FF44060C4F202004FF4005100F0BA
:10088000F9FC4FF48050C4F2010041F2F471C0F65B
:10089000000100F035F9ACE04FF44060C4F2020012
:1008A0004FF4804100F0F4FC4FF48050C4F201009A
:1008B00041F60C01C0F6000100F022F999E04FF476
:1008C0004060C4F202004FF4805100F0E1FC4FF4AC
:1008D0008050C4F2010041F62401C0F6000100F08E
:1008E0000FF986E04FF44060C4F202004FF400417B
:1008F00000F0CEFC4FF48050C4F2010041F6380104
:10090000C0F6000100F0FCF873E04FF44060C4F260
:1009100002004FF4005100F0BBFC4FF48050C4F2D1
:10092000010041F65001C0F6000100F0E9F860E076
:100930004FF44060C4F202004FF4805100F0A8FC74
:100940004FF44060C4F202004FF4005100F0A0FCEC
:100950004FF44060C4F202004FF4804100F098FC74
:100960004FF44060C4F202004FF4004100F090FCEC
:100970004FF48050C4F2010041F66401C0F600015A
:1009800000F0BEF835E04FF44060C4F202004FF4CE
:10099000805100F06FFC4FF44060C4F202004FF44D
:1009A000005100F067FC4FF44060C4F202004FF4C5
:1009B000804100F05FFC4FF44060C4F202004FF44D
:1009C000004100F057FC4FF48050C4F2010041F6A2
:1009D0007C01C0F6000100F093F80AE04FF480506B
:1009E000C4F2010041F69401C0F6000100F088F85D
:1009F00000BF07F10807BD4680BD00BF80B58AB0C3
:100A000000AF78604FF010004FF0010100F048FB9C
:100A10004FF002004FF0010100F018FB4FF0C0034F
:100A20003B624FF0020387F824304FF0020387F84F
:100A300025304FF0000387F826304FF0010387F888
:100A4000273007F120034FF48060C4F202001946FA
:100A500000F050FB4FF48060C4F202004FF006013A
:100A60004FF0070200F022FC4FF48060C4F2020055
:100A70004FF007014FF0070200F018FC7B683B6164
:100A80004FF00003BB824FF00003FB824FF00003E6
:100A90003B834FF00003BB834FF00C037B8307F1D4
:100AA00010034FF48050C4F201001946FFF76CFBAD
:100AB0004FF48050C4F2010040F225514FF0010282
:100AC000FFF76CFC4FF025033B734FF000037B7383
:100AD0004FF00003BB734FF00103FB7307F10C03EE
:100AE000184600F037FC4FF48050C4F201004FF07C
:100AF0000101FFF71FFC07F12807BD4680BD00BFBD
:100B000080B582B000AF7860396014E000BF7B68C8
:100B10001B889BB203F04003002BF8D03B681B7886
:100B2000DBB278681946FFF725FC3B681B783B6809
:100B300003F101033B603B681B78DBB2002BE5D17E
:100B400007F10807BD4680BD90B59BB000AFFFF729
:100B500087FDFFF743FD4FF41650FFF74FFF00E00E
:100B600000BF4FF00000C4F202004FF0010100F09E
:100B700063FB0346002BF3D041F6E003C0F600030D
:100B800007F1040493E8070084E8070007F1100266
:100B90004FF0580310464FF000011A4600F04CFC8D
:100BA00007F10403184600F0CBFD034607F10402E9
:100BB000D21841F69C03C0F6000303CB10605160CD
:100BC0001B7813724FF44060C4F202004FF480515E
:100BD00000F032FB0346002B0FD007F10403184648
:100BE00000F0AEFD034607F10402D21841F6A80357
:100BF000C0F600031868106010E007F104031846FF
:100C000000F09EFD034607F10402D21841F6AC0342
:100C1000C0F60003186810601B79137107F1040314
:100C2000184600F08DFD034607F10402D31841F683
:100C3000B402C0F600021068186091889279998019
:100C40009A714FF44060C4F202004FF4005100F07A
:100C5000F3FA0346002B0FD007F10403184600F007
:100C60006FFD034607F10402D21841F6A803C0F64F
:100C700000031868106010E007F10403184600F044
:100C80005FFD034607F10402D21841F6AC03C0F63B
:100C90000003186810601B79137107F104031846EC
:100CA00000F04EFD034607F10402D21841F6BC03E2
:100CB000C0F6000303CB106051601B8813814FF412
:100CC0004060C4F202004FF4804100F0B5FA0346E0
:100CD000002B0FD007F10403184600F031FD034646
:100CE00007F10402D21841F6A803C0F60003186801
:100CF000106010E007F10403184600F021FD0346E0
:100D000007F10402D21841F6AC03C0F600031868DC
:100D100010601B79137107F10403184600F010FDF1
:100D2000034607F10402D21841F6C803C0F60003D7
:100D300003CB1060516019889B78118193724FF436
:100D40004060C4F202004FF4004100F075FA03461F
:100D5000002B0FD007F10403184600F0F1FC034606
:100D600007F10402D21841F6D403C0F60003186854
:100D7000106010E007F10403184600F0E1FC0346A0
:100D800007F10402D21841F6D803C0F60003186830
:100D900010601B79137107F104034FF48050C4F203
:100DA00001001946FFF7ACFE4FF6F370C0F21F00CA
:100DB000FFF7E2FBD4E600BF80B582B000AF4FF48E
:100DC0008050C4F2010040F22551FFF739FB034681
:100DD000002B51D04FF48053C4F201039B889BB287
:100DE000FB71FB79262B1CD0FB790A2B19D040F222
:100DF0007403C2F200031B781A4640F27803C2F271
:100E00000003F979995440F27403C2F200031B788D
:100E100003F10103DAB240F27403C2F200031A7064
:100E20002AE0FB790A2B27D040F27403C2F20003B8
:100E30001B781A4640F27803C2F200034FF000011B
:100E4000995440F27800C2F20000FFF7B5FC40F27E
:100E50007403C2F200031B781A4640F27803C2F210
:100E60000003F979995440F27403C2F200034FF081
:100E700000021A70FFF796FB07F10807BD4680BD18
:100E800080B489B000AF78604FF00003BB614FF0D1
:100E900000037B614FF00003FB614FF002033B61F5
:100EA0004FF00003FB604FF00203BB604FF4605350
:100EB000C4F202039B6803F00C03BB61BB69042B03
:100EC0000AD0082B0FD0002B60D17A684FF4105352
:100ED000C0F2F403136060E07A684FF49053C0F2FC
:100EE0007A03136059E04FF46053C4F202035B6865
:100EF00003F480034FEA9353FB604FF46053C4F252
:100F000002035B6803F03F03BB60FB68002B14D057
:100F10004FF49053C0F27A03BA68B3FBF2F24FF485
:100F20006053C4F20203596847F6C0730B404FEA9E
:100F3000931303FB02F3FB6113E04FF41053C0F271
:100F4000F403BA68B3FBF2F24FF46053C4F2020345
:100F5000596847F6C0730B404FEA931303FB02F343
:100F6000FB614FF46053C4F202035B6803F4403347
:100F70004FEA134303F101034FEA43033B61FA696C
:100F80003B69B2FBF3F27B681A6006E07A684FF4C3
:100F90001053C0F2F403136000BF4FF46053C4F267
:100FA00002039B6803F0F003BB61BB694FEA1313B4
:100FB000BB6140F26403C2F20003BA699B181B785C
:100FC000DBB27B617B681A687B6922FA03F27B687B
:100FD0005A604FF46053C4F202039B6803F4E05379
:100FE000BB61BB694FEA9323BB6140F26403C2F269
:100FF0000003BA699B181B78DBB27B617B685A6877
:101000007B6922FA03F27B689A604FF46053C4F262
:1010100002039B6803F46043BB61BB694FEA53332F
:10102000BB6140F26403C2F20003BA699B181B78EB
:10103000DBB27B617B685A687B6922FA03F27B68CA
:10104000DA6007F12407BD4680BC704780B483B0E6
:1010500000AF78600B46FB70FB78002B0CD04FF490
:101060006053C4F202034FF46052C4F20202116BE7
:101070007A680A431A630DE04FF46053C4F2020326
:101080004FF46052C4F20202116B7A686FEA0202F6
:101090000A401A6307F10C07BD4680BC704700BFC9
:1010A00080B483B000AF78600B46FB70FB78002BF8
:1010B0000CD04FF46053C4F202034FF46052C4F2F8
:1010C0000202516C7A680A435A640DE04FF460538F
:1010D000C4F202034FF46052C4F20202516C7A6807
:1010E0006FEA02020A405A6407F10C07BD4680BC51
:1010F000704700BF80B487B000AF786039604FF0B0
:1011000000037B614FF000033B614FF00003FB6085
:101110004FF000037B6186E07B694FF0010202FA29
:1011200003F33B613B681A683B691340FB60FA6854
:101130003B699A4273D17B681A687B694FEA430323
:101140004FF0030101FA03F36FEA03031A407B68CF
:101150001A607B681A683B681B7919467B694FEAFD
:10116000430301FA03F31A437B681A603B681B7957
:10117000012B03D03B681B79022B34D17B689A6822
:101180007B694FEA43034FF0030101FA03F36FEA6F
:1011900003031A407B689A607B689A683B685B79B6
:1011A00019467B694FEA430301FA03F31A437B684C
:1011B0009A607B685A687B699BB24FF0010101FA23
:1011C00003F36FEA03031A407B685A607B685A682E
:1011D0003B689B7919467B699BB201FA03F39BB28A
:1011E0001A437B685A607B68DA687B699BB24FEA76
:1011F00043034FF0030101FA03F36FEA03031A40BC
:101200007B68DA607B68DA683B68DB7919467B6962
:101210004FEA430301FA03F31A437B68DA607B6900
:1012200003F101037B617B690F2B7FF675AF07F13B
:101230001C07BD4680BC704780B485B000AF7860A5
:101240000B467B804FF00003FB737B681A697B8839
:101250001340002B03D04FF00103FB7302E04FF06B
:101260000003FB73FB7B184607F11407BD4680BCE7
:10127000704700BF80B483B000AF78600B467B80BE
:101280007B687A881A8307F10C07BD4680BC7047DB
:1012900080B483B000AF78600B467B807B687A882F
:1012A0005A8307F10C07BD4680BC704780B485B0F7
:1012B00000AF786013460A467A807B704FF00003D7
:1012C000FB604FF00003BB607A787B8803F0070374
:1012D0004FEA830302FA03F3FB607B884FEAD303F0
:1012E0009BB21A467B884FEAD3039BB219467B68B0
:1012F00001F1080153F821107B8803F007034FEA3E
:1013000083034FF00F0000FA03F36FEA0303194061
:101310007B6802F1080243F822107B884FEAD3036E
:101320009BB21A467B6802F1080253F82220FB6840
:101330001343BB607B884FEAD3039BB21A467B689A
:1013400002F10802B96843F8221007F11407BD46FC
:1013500080BC704780B485B000AF78604FF0000368
:10136000FB734FF00003BB734FF00F037B737B687D
:10137000DB78002B45D04FF46D43CEF20003DB68E1
:101380006FEA030303F4E0634FEA1323FB73FB7B71
:10139000C3F10403BB737A7BFB7B42FA03F37B73D9
:1013A0007B685B781A46BB7B02FA03F3FB737B68AE
:1013B0009A787B7B1340DAB2FB7B1343FB73FB7B96
:1013C0004FEA0313FB734FF46143CEF200037A68D4
:1013D00012789B18FA7B83F800234FF46143CEF216
:1013E00000037A6812784FEA5212D2B2796809780B
:1013F00001F01F014FF0010000FA01F143F8221043
:1014000014E04FF46143CEF200037A6812784FEA99
:101410005212D2B27968097801F01F014FF0010031
:1014200000FA01F102F1200243F8221007F114073B
:10143000BD4680BC704700BFF0B48407034600F08F
:101440008E80541E002A00F08880E507CEB211D4A9
:101450001A46671E02F8016B1346154692070FD015
:10146000002C7AD003F8016B9A073C461D4607D042
:10147000013CEDE7034603F8016B9A071D46F7D1DF
:10148000032C52D9CEB246EA06270F2C47EA07436F
:101490002DD9A4F1100217460F2FC2F300162B60AE
:1014A0006B60AB60EB6005F1100216D93EB1103FE6
:1014B000136053609360D36010320F2F0DD9203F1B
:1014C00002F11006136053609360D360136153619F
:1014D0009361D36120320F2FF1D8A4F1100222F0D2
:1014E0000F0204F00F041032032C15441DD9271FDE
:1014F0003E462A46032E42F8043BC7F380070DD927
:1015000027B1043E032E42F8043B07D91746083E94
:1015100047F8043B53603A1D032EF7D8231F23F0EE
:101520000302131D04F00304ED18B4B12B46C9B235
:1015300003F8011B2C19ED436219A34202F00105C7
:101540000BD01DB103F8011BA34206D01A4602F8C6
:10155000011B5970531CA342F8D1F0BC70470546DB
:1015600014468DE780EA010212F0030F40F03A8042
:1015700010F0030220F0030021F0030150F804CB27
:1015800008BF51F8043B0DD082F003024FEAC202BB
:101590006FF07F4323FA02F251F8043B4CEA020C4D
:1015A00043EA0203ACF101329C4501BF22EA0C027E
:1015B00012F0803F50F804CB51F8043BF2D04FEAD0
:1015C0000C604FEA1C2C012828BFB0EB036F08BF4A
:1015D0001B0AF4D003F0FF034FEA1060A0EB0300F6
:1015E000704700BF10F0030F0AD010F8012B11F85C
:1015F000013B012A28BF9A42F4D0A2EB03007047B6
:101600004DF8045D4DF8044D4FF0010242EA02220C
:1016100042EA024201F0030C21F0030150F8044BAE
:1016200051F8045BBCF1020F26D04BD824F07F4C5C
:10163000BCEB152FA4EB020323EA04030DD113EA3C
:10164000C21308BF51F8045B0AD18CEA040CBCEB4E
:10165000056F0CD150F8044BE8E74FEA15255CE024
:1016600033F07F4352D10D784FEA146C55E04FEAC6
:10167000146C05F0FF0550E04FEA044CA4EB0203A4
:101680004FEA1C4C23EA0403BCEB154F17D113EAB5
:10169000C21308BF51F8045B07D18CEA040CBCEB01
:1016A000054F08D150F8044BE6E71B042ED10D88F6
:1016B0004FEA144C31E04FEA05454FEA144C4FEA2B
:1016C00015452AE004F0FF0CBCEB156FA4EB0203F8
:1016D00023EA04030DD113EAC21308BF51F8045BD7
:1016E0000AD18CEA040CBCEB052F0AD150F8044B4C
:1016F000E8E74FEA156510E014F0FF0F06D051F847
:10170000045B4FEA142C25F07F4506E04FF0000003
:101710005DF8044B5DF8045B70470CF0FF0205F0C8
:10172000FF00012828BF904204BF4FEA1C2C2D0A5D
:10173000F3D0A2EB00005DF8044B5DF8045B70474A
:1017400020F0030110F00300C0F1000051F8043B49
:1017500000F1040C4FEACC0C6FF000021CBF22FA1F
:101760000CF213434FF0010C4CEA0C2C4CEA0C4CDD
:10177000A3EB0C0222EA030212EACC1204BF51F8D6
:10178000043B0430F4D013F0FF0F1FBF013013F4FB
:101790007F4F013013F47F0F18BF0130704700BF37
:1017A000437A6572776F6E612064696F6461207A35
:1017B0006170616C6F6E6121260000005A69656C72
:1017C0006F6E612064696F6461207A6170616C6F13
:1017D0006E612126000000004E6965626965736BC9
:1017E000612064696F6461207A6170616C6F6E6101
:1017F000212600005A6F6C74612064696F64612057
:101800007A6170616C6F6E6121260000437A6572A7
:10181000776F6E612064696F6461204F46462126B0
:10182000000000005A69656C6F6E612064696F6426
:1018300061204F46462126004E6965626965736BDB
:10184000612064696F6461204F46462126000000D4
:101850005A6F6C74612064696F6461204F46462141
:101860002600000057737A7973746B696520646988
:101870006F6479204F4646212600000057737A791D
:1018800073746B69652064696F6479204F4E2126FB
:10189000000000004572726F722126005A69656C63
:1018A0006F6E612D000000004F4E0A004F46460A41
:1018B000000000005A6F6C74612D0000437A65725D
:1018C000776F6E612D0000004E6965626965736B0C
:1018D000612D00004F4E26004F46462600000000B6
:1018E0005374616E2064696F643A0A00000000005E
:1018F00000000000000000000000000000000000E8
:1019000000000000000000000000000000000000D7
:1019100000000000000000000000000000000000C7
:1019200000000000000000000000000000000000B7
:1019300000000000000000000000000000000000A7
:0419400000000000A3
:101944007265642D6F6E0000677265656E2D6F6E33
:1019540000000000626C75652D6F6E0079656C6C1B
:101964006F772D6F6E0000007265642D6F666600E0
:10197400677265656E2D6F6666000000626C756542
:101984002D6F66660000000079656C6C6F772D6FB3
:1019940066660000616C6C2D6F666600616C6C2D70
:1019A4006F6E000000000000010203040102030442
:0419B4000607080911
:0400000508000000EF
:00000001FF
